1234100MOCHILA                          0000000000100000000010000000
1234101CADERNO                          0000000000110000000010001002
1235100MOCHILA                          0004000000120000000010001001
1234102LAPISEIRA                        0005000000130000000010001002
1234103SULFITE 100 FLS                  0006000000149000000010001003
1111100MOCHILA                          0000000000158000000010001003
1111103SULFITE 100 FLS                  0008000000167000000010001003
1112100MOCHILA                          0009000000170000000010001003
1111105GIZ DE CERA                      0010000000180000000010001003
4455100MOCHILA                          0011000000190000000010001001
4455105GIZ DE CERA                      0012000000200000000010001001
1234100xxxxxxx                          0013000000100000000010000000
1234100zzzzzzz                          0013000000100000000010000000
1234100yyyyyyy                          0013000000100000000010000000
9999100aaaaaaa                          0013000000100000000010001000
9999100ccccccc                          0013000000100000000010001001
1234100MOCHILA                          0000000000100000000010000000
1234101CADERNO                          0000000000110000000010001002
1235100MOCHILA                          0004000000120000000010001001
1234102LAPISEIRA                        0005000000130000000010001002
1234103SULFITE 100 FLS                  0006000000149000000010001003
1111100MOCHILA                          0000000000158000000010001003
1111103SULFITE 100 FLS                  0008000000167000000010001003
1112100MOCHILA                          0009000000170000000010001003
1111105GIZ DE CERA                      0010000000180000000010001003
4455100MOCHILA                          0011000000190000000010001001
4455105GIZ DE CERA                      0012000000200000000010001001
1234100xxxxxxx                          0013000000100000000010000000
1234100zzzzzzz                          0013000000100000000010000000
1234100yyyyyyy                          0013000000100000000010000000
9999100aaaaaaa                          0013000000100000000010001000
9999100ccccccc                          0013000000100000000010001001
1234100MOCHILA                          0000000000100000000010000000
1234101CADERNO                          0000000000110000000010001002
1235100MOCHILA                          0004000000120000000010001001
1234102LAPISEIRA                        0005000000130000000010001002
1234103SULFITE 100 FLS                  0006000000149000000010001003
1111100MOCHILA                          0000000000158000000010001003
1111103SULFITE 100 FLS                  0008000000167000000010001003
1112100MOCHILA                          0009000000170000000010001003
1111105GIZ DE CERA                      0010000000180000000010001003
4455100MOCHILA                          0011000000190000000010001001
4455105GIZ DE CERA                      0012000000200000000010001001
1234100xxxxxxx                          0013000000100000000010000000
1234100zzzzzzz                          0013000000100000000010000000
1234100yyyyyyy                          0013000000100000000010000000
9999100aaaaaaa                          0013000000100000000010001000
9999100ccccccc                          0013000000100000000010001001
1234100MOCHILA                          0000000000100000000010000000
1234101CADERNO                          0000000000110000000010001002
1235100MOCHILA                          0004000000120000000010001001
1234102LAPISEIRA                        0005000000130000000010001002
1234103SULFITE 100 FLS                  0006000000149000000010001003
1111100MOCHILA                          0000000000158000000010001003
1111103SULFITE 100 FLS                  0008000000167000000010001003
1112100MOCHILA                          0009000000170000000010001003
1111105GIZ DE CERA                      0010000000180000000010001003
4455100MOCHILA                          0011000000190000000010001001
4455105GIZ DE CERA                      0012000000200000000010001001
1234100xxxxxxx                          0013000000100000000010000000
1234100zzzzzzz                          0013000000100000000010000000
1234100yyyyyyy                          0013000000100000000010000000
9999100aaaaaaa                          0013000000100000000010001000
9999100ccccccc                          0013000000100000000010001001
1234100MOCHILA                          0000000000100000000010000000
1234101CADERNO                          0000000000110000000010001002
1235100MOCHILA                          0004000000120000000010001001
1234102LAPISEIRA                        0005000000130000000010001002
1234103SULFITE 100 FLS                  0006000000149000000010001003
1111100MOCHILA                          0000000000158000000010001003
1111103SULFITE 100 FLS                  0008000000167000000010001003
1112100MOCHILA                          0009000000170000000010001003
1111105GIZ DE CERA                      0010000000180000000010001003
4455100MOCHILA                          0011000000190000000010001001
4455105GIZ DE CERA                      0012000000200000000010001001
1234100xxxxxxx                          0013000000100000000010000000
1234100zzzzzzz                          0013000000100000000010000000
1234100yyyyyyy                          0013000000100000000010000000
9999100aaaaaaa                          0013000000100000000010001000
9999100ccccccc                          0013000000100000000010001001
1234100MOCHILA                          0000000000100000000010000000
1234101CADERNO                          0000000000110000000010001002
1235100MOCHILA                          0004000000120000000010001001
1234102LAPISEIRA                        0005000000130000000010001002
1234103SULFITE 100 FLS                  0006000000149000000010001003
1111100MOCHILA                          0000000000158000000010001003
1111103SULFITE 100 FLS                  0008000000167000000010001003
1112100MOCHILA                          0009000000170000000010001003
1111105GIZ DE CERA                      0010000000180000000010001003
4455100MOCHILA                          0011000000190000000010001001
4455105GIZ DE CERA                      0012000000200000000010001001
1234100xxxxxxx                          0013000000100000000010000000
1234100zzzzzzz                          0013000000100000000010000000
1234100yyyyyyy                          0013000000100000000010000000
9999100aaaaaaa                          0013000000100000000010001000
9999100ccccccc                          0013000000100000000010001001
1234100MOCHILA                          0000000000100000000010000000
1234101CADERNO                          0000000000110000000010001002
1235100MOCHILA                          0004000000120000000010001001
1234102LAPISEIRA                        0005000000130000000010001002
1234103SULFITE 100 FLS                  0006000000149000000010001003
1111100MOCHILA                          0000000000158000000010001003
1111103SULFITE 100 FLS                  0008000000167000000010001003
1112100MOCHILA                          0009000000170000000010001003
1111105GIZ DE CERA                      0010000000180000000010001003
4455100MOCHILA                          0011000000190000000010001001
4455105GIZ DE CERA                      0012000000200000000010001001
1234100xxxxxxx                          0013000000100000000010000000
1234100zzzzzzz                          0013000000100000000010000000
1234100yyyyyyy                          0013000000100000000010000000
9999100aaaaaaa                          0013000000100000000010001000
9999100ccccccc                          0013000000100000000010001001
1234100MOCHILA                          0000000000100000000010000000
1234101CADERNO                          0000000000110000000010001002
1235100MOCHILA                          0004000000120000000010001001
1234102LAPISEIRA                        0005000000130000000010001002
1234103SULFITE 100 FLS                  0006000000149000000010001003
1111100MOCHILA                          0000000000158000000010001003
1111103SULFITE 100 FLS                  0008000000167000000010001003
1112100MOCHILA                          0009000000170000000010001003
1111105GIZ DE CERA                      0010000000180000000010001003
4455100MOCHILA                          0011000000190000000010001001
4455105GIZ DE CERA                      0012000000200000000010001001
1234100xxxxxxx                          0013000000100000000010000000
1234100zzzzzzz                          0013000000100000000010000000
1234100yyyyyyy                          0013000000100000000010000000
9999100aaaaaaa                          0013000000100000000010001000
9999100ccccccc                          0013000000100000000010001001
1234100MOCHILA                          0000000000100000000010000000
1234101CADERNO                          0000000000110000000010001002
1235100MOCHILA                          0004000000120000000010001001
1234102LAPISEIRA                        0005000000130000000010001002
1234103SULFITE 100 FLS                  0006000000149000000010001003
1111100MOCHILA                          0000000000158000000010001003
1111103SULFITE 100 FLS                  0008000000167000000010001003
1112100MOCHILA                          0009000000170000000010001003
1111105GIZ DE CERA                      0010000000180000000010001003
4455100MOCHILA                          0011000000190000000010001001
4455105GIZ DE CERA                      0012000000200000000010001001
1234100xxxxxxx                          0013000000100000000010000000
1234100zzzzzzz                          0013000000100000000010000000
1234100yyyyyyy                          0013000000100000000010000000
9999100aaaaaaa                          0013000000100000000010001000
9999100ccccccc                          0013000000100000000010001001
1234100MOCHILA                          0000000000100000000010000000
1234101CADERNO                          0000000000110000000010001002
1235100MOCHILA                          0004000000120000000010001001
1234102LAPISEIRA                        0005000000130000000010001002
1234103SULFITE 100 FLS                  0006000000149000000010001003
1111100MOCHILA                          0000000000158000000010001003
1111103SULFITE 100 FLS                  0008000000167000000010001003
1112100MOCHILA                          0009000000170000000010001003
1111105GIZ DE CERA                      0010000000180000000010001003
4455100MOCHILA                          0011000000190000000010001001
4455105GIZ DE CERA                      0012000000200000000010001001
1234100xxxxxxx                          0013000000100000000010000000
1234100zzzzzzz                          0013000000100000000010000000
1234100yyyyyyy                          0013000000100000000010000000
9999100aaaaaaa                          0013000000100000000010001000
9999100ccccccc                          0013000000100000000010001001
1234100MOCHILA                          0000000000100000000010000000
1234101CADERNO                          0000000000110000000010001002
1235100MOCHILA                          0004000000120000000010001001
1234102LAPISEIRA                        0005000000130000000010001002
1234103SULFITE 100 FLS                  0006000000149000000010001003
1111100MOCHILA                          0000000000158000000010001003
1111103SULFITE 100 FLS                  0008000000167000000010001003
1112100MOCHILA                          0009000000170000000010001003
1111105GIZ DE CERA                      0010000000180000000010001003
4455100MOCHILA                          0011000000190000000010001001
4455105GIZ DE CERA                      0012000000200000000010001001
1234100xxxxxxx                          0013000000100000000010000000
1234100zzzzzzz                          0013000000100000000010000000
1234100yyyyyyy                          0013000000100000000010000000
9999100aaaaaaa                          0013000000100000000010001000
9999100ccccccc                          0013000000100000000010001001
1234100MOCHILA                          0000000000100000000010000000
1234101CADERNO                          0000000000110000000010001002
1235100MOCHILA                          0004000000120000000010001001
1234102LAPISEIRA                        0005000000130000000010001002
1234103SULFITE 100 FLS                  0006000000149000000010001003
1111100MOCHILA                          0000000000158000000010001003
1111103SULFITE 100 FLS                  0008000000167000000010001003
1112100MOCHILA                          0009000000170000000010001003
1111105GIZ DE CERA                      0010000000180000000010001003
4455100MOCHILA                          0011000000190000000010001001
4455105GIZ DE CERA                      0012000000200000000010001001
1234100xxxxxxx                          0013000000100000000010000000
1234100zzzzzzz                          0013000000100000000010000000
1234100yyyyyyy                          0013000000100000000010000000
9999100aaaaaaa                          0013000000100000000010001000
9999100ccccccc                          0013000000100000000010001001
1234100MOCHILA                          0000000000100000000010000000
1234101CADERNO                          0000000000110000000010001002
1235100MOCHILA                          0004000000120000000010001001
1234102LAPISEIRA                        0005000000130000000010001002
1234103SULFITE 100 FLS                  0006000000149000000010001003
1111100MOCHILA                          0000000000158000000010001003
1111103SULFITE 100 FLS                  0008000000167000000010001003
1112100MOCHILA                          0009000000170000000010001003
1111105GIZ DE CERA                      0010000000180000000010001003
4455100MOCHILA                          0011000000190000000010001001
4455105GIZ DE CERA                      0012000000200000000010001001
1234100xxxxxxx                          0013000000100000000010000000
1234100zzzzzzz                          0013000000100000000010000000
1234100yyyyyyy                          0013000000100000000010000000
9999100aaaaaaa                          0013000000100000000010001000
9999100ccccccc                          0013000000100000000010001001
1234100MOCHILA                          0000000000100000000010000000
1234101CADERNO                          0000000000110000000010001002
1235100MOCHILA                          0004000000120000000010001001
1234102LAPISEIRA                        0005000000130000000010001002
1234103SULFITE 100 FLS                  0006000000149000000010001003
1111100MOCHILA                          0000000000158000000010001003
1111103SULFITE 100 FLS                  0008000000167000000010001003
1112100MOCHILA                          0009000000170000000010001003
1111105GIZ DE CERA                      0010000000180000000010001003
4455100MOCHILA                          0011000000190000000010001001
4455105GIZ DE CERA                      0012000000200000000010001001
1234100xxxxxxx                          0013000000100000000010000000
1234100zzzzzzz                          0013000000100000000010000000
1234100yyyyyyy                          0013000000100000000010000000
9999100aaaaaaa                          0013000000100000000010001000
9999100ccccccc                          0013000000100000000010001001
1234100MOCHILA                          0000000000100000000010000000
1234101CADERNO                          0000000000110000000010001002
1235100MOCHILA                          0004000000120000000010001001
1234102LAPISEIRA                        0005000000130000000010001002
1234103SULFITE 100 FLS                  0006000000149000000010001003
1111100MOCHILA                          0000000000158000000010001003
1111103SULFITE 100 FLS                  0008000000167000000010001003
1112100MOCHILA                          0009000000170000000010001003
1111105GIZ DE CERA                      0010000000180000000010001003
4455100MOCHILA                          0011000000190000000010001001
4455105GIZ DE CERA                      0012000000200000000010001001
1234100xxxxxxx                          0013000000100000000010000000
1234100zzzzzzz                          0013000000100000000010000000
1234100yyyyyyy                          0013000000100000000010000000
9999100aaaaaaa                          0013000000100000000010001000
9999100ccccccc                          0013000000100000000010001001
1234100MOCHILA                          0000000000100000000010000000
1234101CADERNO                          0000000000110000000010001002
1235100MOCHILA                          0004000000120000000010001001
1234102LAPISEIRA                        0005000000130000000010001002
1234103SULFITE 100 FLS                  0006000000149000000010001003
1111100MOCHILA                          0000000000158000000010001003
1111103SULFITE 100 FLS                  0008000000167000000010001003
1112100MOCHILA                          0009000000170000000010001003
1111105GIZ DE CERA                      0010000000180000000010001003
4455100MOCHILA                          0011000000190000000010001001
4455105GIZ DE CERA                      0012000000200000000010001001
1234100xxxxxxx                          0013000000100000000010000000
1234100zzzzzzz                          0013000000100000000010000000
1234100yyyyyyy                          0013000000100000000010000000
9999100aaaaaaa                          0013000000100000000010001000
9999100ccccccc                          0013000000100000000010001001
